:020000040002F8
:1060000090500020DD630200E5630200E7630200B8
:10601000E9630200EB630200ED6302000000000090
:10602000000000000000000000000000EF6302001C
:10603000F163020000000000F3630200F563020058
:10604000E5660200F7630200FD690200F7630200E3
:10605000F7630200F7630200B9650200F76302000C
:10606000F7630200F7630200F7630200F7630200C0
:10607000F7630200F7630200F7630200F7630200B0
:10608000F763020039670200F7630200F76302005A
:106090006D670200F763020075670200F763020094
:1060A000F7630200F7630200F7630200F763020080
:1060B000F7630200F7630200000000000000000028
:1060C000F7630200F7630200F7630200F763020060
:1060D000F7630200F7630200F763020000000000AC
:1060E00000000000000000000000000000000000B0
:1060F00000000000000000000000000000000000A0
:10610000000000000000000000000000000000008F
:10611000000000000000000000000000000000007F
:10612000000000000000000000000000000000006F
:10613000000000000000000000000000000000005F
:10614000000000000000000000000000000000004F
:10615000000000000000000000000000000000003F
:10616000000000000000000000000000000000002F
:10617000000000000000000000000000000000001F
:10618000000000000000000000000000000000000F
:1061900000000000000000000000000000000000FF
:1061A00000000000000000000000000000000000EF
:1061B00000000000000000000000000000000000DF
:1061C00000000000000000000000000000000000CF
:1061D00000000000000000000000000000000000BF
:1061E00000000000000000000000000000000000AF
:1061F000000000000000000000000000000000009F
:10620000DFF80CD000F07EF900480047ADAA02008C
:106210009050002000B583B002900091019244F2AA
:10622000010071466A4600F0F9FD03B000BD0000B0
:1062300030B450E8012F93B2C48923448489A34227
:1062400028BF1B1B0489A34202BFBFF32F8F00206E
:1062500007E0C3EA020340E80134002CE9D14FF023
:1062600001000A6030BC704750E8012FC2EA0242C8
:1062700040E801210029F7D1704730B450E8022FDF
:106280001FFAA2F3C488A34202BFBFF32F8F0020DE
:106290000DE0C48923448489A34228BF1B1BC2EAA2
:1062A000034340E80234002CE8D14FF001000A60BB
:1062B00030BC704750E8022FC2EA224240E8022177
:1062C0000029F7D17047034653E8022FD988B2EB73
:1062D000324F4FF0000017BF92B241EA014142EA4B
:1062E000014104E05A68B2EB324F08BF012043E895
:1062F0000212002AE8D1704730B4044654E8000F77
:106300000D4644E80053002BF8D1156030BC7047AF
:1063100030B4044654E8000F40EA010544E8005355
:10632000002BF7D1156030BC704730B4044654E8F8
:10633000000F00EA010544E80053002BF7D1156077
:1063400030BC704730B4044654E8000F80EA0105C1
:1063500044E80053002BF7D1156030BC704730B4CF
:10636000044654E8000F00EB010544E80053002BFD
:10637000F7D1156030BC704730B4044654E8000FC4
:10638000A0EB010544E80053002BF7D1156030BCA9
:10639000704770B404464FF0000054E8006F0D6879
:1063A000AE4207BF44E80023012044E800630E60CA
:1063B000002B1CBF0020F0E770BC704730B40446CF
:1063C00054E8000F88422CBF451A054644E80053A4
:1063D000002BF5D1156030BC70470000064880479F
:1063E00006480047FEE7FEE7FEE7FEE7FEE7FEE7BA
:1063F000FEE7FEE7FEE7FEE78D67020001620200AE
:106400002DE9F05F0546002092469B4688460646E9
:10641000814640241BE0284641464746224600F07C
:1064200060F853465A46C01A914110D31146184697
:10643000224600F016F82D1A67EB01084F46224657
:106440000120002100F00DF817EB00094E41201E3D
:10645000A4F10104DFDC484631462A464346BDE844
:10646000F09F202A04DB203A00FA02F10020704756
:106470009140C2F1200320FA03F319439040704782
:1064800040EA01039B0703D009E008C9121F08C0B6
:10649000042AFAD203E011F8013B00F8013B521E36
:1064A000F9D27047D2B201E000F8012B491EFBD2AD
:1064B00070470022F6E710B513460A46044619460F
:1064C000FFF7F0FF204610BD30B50446002003461C
:1064D00000E05B1C934203D2E05CCD5C401BF8D033
:1064E00030BD202A04DB203A21FA02F00021704757
:1064F00021FA02F3D040C2F120029140084319462C
:1065000070470000064C074D06E0E06840F00103CC
:1065100094E8070098471034AC42F6D3FFF774FEB6
:1065200088020300A802030070B58C1810F8015B04
:1065300015F0070301D110F8013B2A1106D110F81C
:10654000012B03E010F8016B01F8016B5B1EF9D120
:106550002B0705D40023521E0DD401F8013BFAE7A6
:1065600010F8013BCB1A921C03E013F8015B01F811
:10657000015B521EF9D5A142D8D3002070BD0000A6
:1065800008B540F6FF70009069460A4809F0FBF92B
:10659000142000BF83061946D1F804250123834047
:1065A0009343C1F80835012383401340C1F80C35EB
:1065B00000BF08BD982900202DE9F84F00260020D3
:1065C00000904FF480770125002410E0384605F054
:1065D00023F940B100BF25480068284018B138466B
:1065E00005F00CF92E436D00381D87B2641C082C91
:1065F000ECD34FF4BE7005F00FF950B14FF4BE70FC
:1066000005F0FCF846F000466A460121002005F03E
:106610009BF8F0B210B3012500241DE005EA060046
:10662000C0B100BF124850F82400C0F304208146D6
:1066300000BF0F4850F82400C0F3014082462046B6
:1066400002F016F88046B8F1000F02D051464846D5
:10665000C04700BF6D00641C082CDFD306F000406B
:1066600010B1684607F00EFABDE8F88F04630040E9
:106670001065004000F01F0201219140024A4309C9
:1066800042F823107047000080E200E000F01F0293
:10669000012191404209920002F1E022C2F800116A
:1066A0007047000000F01F0201219140024A430997
:1066B00042F823107047000000E200E010B5002807
:1066C00007DA4A07140E054A00F00F031B1FD454C3
:1066D00003E04A07130E024A135410BD18ED00E000
:1066E00000E400E010B54FF4807004F0CFFE80B1FC
:1066F0004FF4807004F0D3FE012004F0D9FE0D4861
:10670000407930B901200B494871084601680020E2
:1067100088474FF4827004F0B9FE50B14FF4827094
:1067200004F0BDFE022004F0C3FE0248016801200F
:10673000884710BDA824002010B500200949086032
:1067400000210948C0F84411C0F84811C0F84C11A4
:1067500000200549C1F8000102493C39086008F0F1
:1067600023FF10BD401101400010014010B508F09A
:1067700015FE10BD10B505F013FA10BD0148024911
:10678000086070470090D0032C25002010B504F05D
:10679000F5FA28B18A480088C0F3042089490860C6
:1067A00004F048FB10B188488849486704F082FB30
:1067B00030B18348E0380068C0F342308449086053
:1067C00004F0A6FB28B18348006820F0807081495E
:1067D000086004F0BDFB48B100207F4908604FF01D
:1067E0008041C1F810017A49091F086004F0DEFBFE
:1067F00018B1032076496431086004F0F7FB68B1F2
:10680000052076490860012074497831086000202D
:106810007249083108603F20091F086004F006FC37
:10682000002855D06648E03000686D49086064482B
:10683000E4300068091D08606148E8300068091DFF
:1068400008605F48EC300068091D08605C48F03063
:106850000068091D08605A48F4300068091D086086
:106860005748F83000685E49203108605448FC30D1
:106870000068091D08605B480068091D08605948E8
:10688000001D0068091D0860564808300068091D91
:10689000086054480C300068091D086051481030E9
:1068A00000684F49403108604E4814300068091DA7
:1068B00008604C4818300068091D086049481C30C1
:1068C0000068091D0860474820300068091D0860FD
:1068D00004F026FA30B13A48CC38006800F04F0096
:1068E0004149086004F078FA40B14048006800F07F
:1068F000010018B16FF001003C49086004F0BAFAD9
:1069000028B13B48006840F480603949086031484C
:106910007438006840F470002E497439086000BF74
:1069200000BF00BFBFF34F8F00BF00BF00BF00BF5D
:1069300000BF00BFBFF36F8F00BF00BF00BF2D4877
:10694000006800F0004028B92A48001D006800F0E7
:10695000004088B3012005F035FB1520254908606B
:1069600005F03AFB15214FF01020C0F8041205F095
:1069700033FB002005F026FB00BF00BF00BF00BFB7
:1069800000BFBFF34F8F00BF00BF00BF1148F038FA
:10699000006800F4E06018490843001D0D49F03913
:1069A000086000BF00BF00BFBFF34F8F00BF00BF34
:1069B00000BF00BF00BFFDE7FFE7FFF7DFFE10BD30
:1069C00024030010403501400DF0ADBA00C007406F
:1069D0003C050040FCED00E00C010040105600407A
:1069E00020C5004024040010E40E004000040040D4
:1069F0003C170040001200100000FA0510B50249D3
:106A00000868804710BD0000B024002002E008C8DC
:106A1000121F08C1002AFAD170477047002001E018
:106A200001C1121F002AFBD1704700000146202936
:106A300008DA012088400A4A104008B10120704756
:106A40000020FCE7402909DAA1F12000012202FA26
:106A500000F008B10120F2E70020F0E70120EEE7A6
:106A6000FC06FFBD00BFEFF31081084672B6704709
:106A700070B505460C4605B10CB9002070BD2878EC
:106A800040082178B0EB510F01D00020F6E7062234
:106A9000611C681CFFF718FD08B90120EEE7002013
:106AA000ECE7014601F0030008B90120704700201F
:106AB000FCE7024650680068401E084008B9012003
:106AC00070470020FCE70246002104E0505C08B15A
:106AD00001207047491C0629F8D30020F9E710B5BA
:106AE0000346D868884206D88818401E1C69A04210
:106AF00001D8012010BD0020FCE7000010B50446BD
:106B00006CB10848C068A04209D806480069A04294
:106B100005D3204603F087FD08B1012010BD0020F9
:106B2000FCE700003025002070B504460D4604F255
:106B30002740FFF7C8FF0646012D06D0022D0DD0D5
:106B4000032D11D0042D19D113E0A07928B194F8A8
:106B5000240010B90EB1012070BD00BFE07910B162
:106B60000EB10220F8E700BF207A08B10320F3E756
:106B700000BF607A08B10420EEE700BF0020EBE719
:106B80000146481C052290FBF2F302FB1300C0B241
:106B90007047014691F82420012A01D1EE2000E03F
:106BA0001F20704710B501220221002001F054FA85
:106BB000044600BF1CB1072C01D0204610BD00BF09
:106BC00007220221012001F047FA044600BF1CB150
:106BD000072C01D02046F1E700BF0A220021084619
:106BE00001F03AFA044600BF1CB1072C01D0204640
:106BF000E4E700BF0020E1E730B5ABB0AC21684668
:106C0000FFF757FC02208DF8000001208DF80200EC
:106C100006208DF803000121ADF84C1011491491A4
:106C200001218DF87C104FF49671229144F250614D
:106C300023910D48299069460C4800F0F0FB04466A
:106C400000BF25463DB100BF09A240F2B52128464C
:106C5000FFF7E0FA00BF00BF0121044800F0DCFBB1
:106C60002BB030BD1A240020E9BF020064250020AB
:106C70002E2E5C2E2E5C2E2E5C6D61696E2E6300B6
:106C800070B50446012C02D101F06CFF11E0032124
:106C9000084800F08BFC054600BF2E463EB100BF01
:106CA00005A240F2FD213046FFF7B4FA00BF00BF55
:106CB00000BF70BD642500202E2E5C2E2E5C2E2E73
:106CC0005C6D61696E2E630070B58CB004460D4634
:106CD0001646002005E0C0F10F01615C0DF80010C0
:106CE000401C1028F7D30D2104A8FFF7E2FB002079
:106CF00005E02A5CC0F10F0304A9CA54401C032814
:106D0000F7D3684646DF002005E0C0F10F0208A96E
:106D1000895C3154401C0328F7D30CB070BD10B50A
:106D20000446022001F032F810BD000010B5044600
:106D300002480178204600F0BFFD10BD8F240020DE
:106D400010B5002407E00749096811F83400012153
:106D500004F0F0FF641C044800788442F3D3002060
:106D600010BD0000B8240020BC2400202DE9F84309
:106D700006460D4617460A2F02D20720BDE8F883C3
:106D800005F016F938B905F0AFF8044600BF204603
:106D900000B1F3E700BF18480660184805701848AE
:106DA000076018480021016041608160C160164A97
:106DB0001160516015E006EBC508144800680090AA
:106DC00098F802008DF8010098F80000104A694612
:106DD00005F006F8044600BF204600B1CEE700BF2C
:106DE00000BF281EA5F10101CDB2E4D1094A00215E
:106DF000094800F083F8C1E7B8240020BC24002033
:106E0000C0240020982D0020C82400206801030021
:106E1000819D0200ED8B02006401030070B5054600
:106E20000E46144672B6012D0BD06FF480502844E4
:106E300040B1B0F5405F08D06FF44051084430B91C
:106E400001E005E004E0204602E0204600E000BF4B
:106E500000BF00BF0648006800F0010000B100BE9E
:106E600000BF22463146284600F004F870BD0000FD
:106E7000F0ED00E018B5012300939DF800301E4BA3
:106E8000186059609A606FF48043034463B1012B2A
:106E900019D1194BDA60DB681B68174CA3612346D4
:106EA000DB685B68E3610EE0134B1A611B699B684A
:106EB000114C636123461B691B68A36123461B6950
:106EC0005B68E36100BF00BF0B4B1B680A4B5B684C
:106ED000094B9B68084BDB68074B1B69064B5B69DA
:106EE000054B9B69044BDB6972B600BF9DF800300F
:106EF000002BFBD162B618BDA82D002010B50346AB
:106F00000C4600BF0B48807808B9082010BD00BFB0
:106F10000AB90720FAE70BB90720F7E71868007CE1
:106F200008B10820F2E71968002008744C744A611F
:106F300000BFEBE7C82D002010B507F0DBF90020FB
:106F40000F49087048700B20887000200D490860B8
:106F50000D4908700D4908701420FFF78BFB0721BD
:106F60001420FFF7ABFB1420FFF790FB002007F085
:106F700097F907F08FF906490860002010BD00005E
:106F8000C82D0020D0240020E0240020E12400208F
:106F9000D42400202DE9F04104460D46174626462C
:106FA00000BF1148807810B90820BDE8F08100BF0B
:106FB0000CB90820F9E7052D02D3B5F1807F01D384
:106FC0000720F2E7706908B90820EEE7707C012815
:106FD00001D1284600E0002080463B464246294633
:106FE000304608F091FAE0E7C82D002070B504465D
:106FF000254600BF0848807808B9082070BD00BF4A
:107000000CB1686908B90820F8E70020287402214B
:10701000284608F0A8FAF1E7C82D002010B504466C
:10702000204607F0EFF910BD70B5044625460E481E
:107030008068B0B1ADB9FFF715FD06460A48006893
:107040000A490860084840684FF0E021C1F804018F
:107050000020054988601EB900BF62B600BF00BFAE
:1070600000BF00BF70BD0000D42E002000E100E092
:10707000F8B505460C4617462088001DB84201D9D0
:107080000C20F8BD684679DF064600BF304600B1E7
:10709000F7E700BF0320218868542088401C208027
:1070A0001920218868542088401C2080208841199C
:1070B000BDF8000008F005FB21880844208000206E
:1070C000DFE7704770B504460D46204603F058FCD4
:1070D00070BD10B50446637903F00302217920885E
:1070E00003F068FB10BD10B50446207918B920469E
:1070F00000F008F803E02046FFF7EBFF00BF00BFF9
:1071000010BD00002DE9FC41064637884FF000080D
:10711000002244480178384600F0E4FB7079C0F35F
:10712000800028B90021304605F016FDBDE8FC813D
:1071300007F5807188B26B460122072105F0DAFD60
:10714000054645B12946384607F0C6FB00213046C2
:1071500005F002FDEAE7384603F0DEF804464FF694
:10716000FF718C421BD1019803F026F804464FF6BC
:10717000FF70844213D02146384603F0ABF83846FE
:10718000FFF7D4FD58B9384607F03AFB3846FFF709
:10719000CDFD20B90021304605F0DEFCC6E74FF6F4
:1071A000FF70844215D105F059FF04464FF6FF7079
:1071B000844208D10421384607F08EFB0021304676
:1071C00005F0CAFCB2E72146384603F083F84FF0D9
:1071D000010807F5807188B22246072105F000FEFC
:1071E000054625B90121304605F0B6FC17E0862D8D
:1071F00007D1384607F036FB0121304605F0ACFCDC
:107200000DE02946384607F067FB0021304605F0BF
:10721000A3FCB8F1000F02D0204603F065F800BFD0
:1072200084E700008C2400202DE9FC4105468846B7
:107230001646002437880020308095F82D0058B17C
:107240003A463146404600F071FB044600BF2046F6
:1072500008B1BDE8FC8100BFA87850B13A4631467C
:107260004046FFF705FF044600BF204600B1F0E7A7
:1072700000BFE87860B1E97848B23B463246414603
:1072800002F060F9044600BF204600B1E1E700BF0C
:10729000686868B1696891F900003B46324641462A
:1072A00008F0EEF9044600BF204600B1D1E700BF68
:1072B000288900280EDD43460622022105F1080038
:1072C000CDE9006708F0CDFA044600BF204600B1C2
:1072D000BFE700BF288A00280EDD434607220321AE
:1072E00005F11000CDE9006708F0BBFA044600BFC5
:1072F000204600B1ADE700BF288B00280EDD4346D5
:107300001522142105F11800CDE9006708F0A9FA4B
:10731000044600BF204600B19BE700BF286A58B171
:107320003B4632464146286A01F0BDFA044600BF9A
:10733000204600B18DE700BF686A58B13B4632462F
:107340004146686A03F0D6FB044600BF204600B100
:107350007FE700BF95F82C0000280BDD3B46324646
:107360004146284607F0E0FB044600BF204600B136
:107370006FE700BF287858B13B4632464146284661
:1073800003F026FC044600BF204600B161E700BFC1
:1073900020465EE7F8B504460E46154600200090EC
:1073A0002B466A463146204600F008F807460FB9DA
:1073B0000020F8BDBDF800002044FAE7F0B504460F
:1073C0000D461E4604B10AB90020F0BD002103E0BD
:1073D000605C401C084481B2481CA84206DA108850
:1073E0008842F5DC481C205CB042F1D1A94201DBA7
:1073F0000020EAE7881C87B2605C10B1605C401E28
:1074000000E0002083B213B1F818A84201DD00208B
:10741000DBE717801846D8E780F83010704770B562
:1074200004460D4605B10CB90E2070BD05F178007B
:1074300001F0DAF908B90720F7E70020A0702C2244
:1074400005F17801201DFFF71BF8002084F83000BB
:10745000D5F8A4006063D5F8A800A0634FF6FF70CC
:10746000A4F8240404F58260C4F82004002140F24A
:107470002C40C4F82614A4F82A140155207810B919
:10748000FF2084F8540004F15500C4F8100420468D
:10749000FFF77FFB40F21441085304F2144204F159
:1074A00055012846FFF7C0FE064600BF304600B132
:1074B000BBE700BF04F231204FF48361085120463E
:1074C000FFF767FBA4F81C044FF48360015904F232
:1074D0001C4205F13C00FFF7A7FE064600BF304600
:1074E00000B1A2E700BF012151200155208B81B2DC
:1074F00048200153012084F83C00002121645020E1
:1075000001556169616404F13C02002104F15400F9
:1075100072DF064600BF304600B186E700BF01209B
:107520002070304681E770B504460D462E4620880F
:10753000102804D0112807D026280FD109E02146B1
:10754000304604F0E5FD0AE02146304604F075FEC1
:1075500005E02146304604F072FF00E000BF00BFA6
:1075600070BD70B5044694F8540074DF012084F8AF
:107570002E04002084F830040021502001550621FB
:10758000204601F0FAFF054600BF284600B170BD55
:1075900000BFA178204600F009F8054625B1A06B90
:1075A00010B12846A16B88470020F0E770B504466B
:1075B0000E46207808B9082070BDA670002140F260
:1075C0002C40C4F82614A4F82A140155A07910B14F
:1075D000A078012809D0E07910B1A078012804D062
:1075E000E07970B1A07802280BD1606B30B1012036
:1075F00084F82D040820616B884702E0002084F89D
:107600002D0431462046FFF78FFAA070606BA0B1C1
:10761000A078032802D0A07804280ED1607960B148
:1076200094F82E0448B9002084F83004012084F82E
:107630002F040720616B884702E0002084F82F04A4
:10764000182104F13C00FEF734FF012084F83C00CF
:1076500004F12C0005F0DAFE20B194F82C10512032
:10766000015502E001215120015594F8240060B138
:1076700004F1280005F0CAFE20B194F82810522029
:10768000015502E0012152200155002150200155F1
:10769000A078052824D2DFE800F01F030A111800A3
:1076A00004F13C01204607F0CBFA054619E004F14D
:1076B0003C01204607F0ACFA054612E004F13C011B
:1076C000204607F0CFFA05460BE004F13C012046C6
:1076D00007F0F6FA054604E0002084F8310000E0E7
:1076E00000BF00BFA07898B104F13C0204F154003F
:1076F000D4F8201472DF05460DB128465CE794F8F3
:10770000301094F8540073DF05460DB1284653E756
:10771000606B18B194F83100616B884700204BE72B
:107720002DE9F041044600BF14B90E20BDE8F081F8
:1077300000BF1C2221461C48FEF7A2FE1B481A4926
:107740000860206860B120687ADF05460DB12846E0
:10775000ECE7164821680A6802604968416005E064
:1077600012487BDF05460DB12846DFE7002617E00B
:1077700006EB86000E4901EB800700BF4FF6FF7055
:10778000388000BF0B4800EB461078600A4A0021A1
:10779000381DFFF7B3FB05460DB10320C6E7761C85
:1077A000002EE5D00020C1E7582A00204024002008
:1077B000442A0020242A002029F7020010B504469C
:1077C000204600F0A5F820B12146034803F009FD4A
:1077D00010BD0020FCE70000842A002070B504469C
:1077E0000D461646204607F0E9FF08B9002070BD97
:1077F000034951F824003246294601F033FFF6E7E9
:10780000902A002010B50446204600F081F820B1EF
:107810002146034803F0E5FC10BD0020FCE7000012
:107820008C2A002010B50446204600F071F820B1E3
:107830002146034803F0D5FC10BD0020FCE7000002
:10784000882A002070B504460025204600F060F824
:1078500050B12146054803F0C4FC06460EB1022093
:1078600000E00120054600BF284670BD802A0020A8
:1078700070B504460025204600F04AF850B1214674
:10788000054803F0AEFC06460EB1022000E00120E0
:10789000054600BF284670BD7C2A002010B518217F
:1078A000044803F06EFC0446182C00D110BDE0B271
:1078B000FCE70000742A002070B505460C462046FF
:1078C00007F07CFF50B1284600F022F830B104499F
:1078D00001EB8400294603F084FC70BD0020FCE726
:1078E000902A002070B505460C461646204607F043
:1078F00065FF50B1284600F00BF830B1034901EBA9
:1079000084003246294601F00EFE70BD902A002008
:1079100010B50446142C01DB002010BD214602489E
:1079200003F05FFCF9E70000782A00202DE9FC4114
:1079300005460C46174620880930B84202D90C206B
:10794000BDE8FC8168466DDF064600BF304600B1E9
:10795000F6E700BF0820218868542088401C20805A
:107960001B20218868542088401C208020882844BF
:10797000DDF801100160BDF8051081802088801DB0
:1079800020809DF80000400818B900202188685424
:1079900002E00120218868542088401C20800020BB
:1079A000CEE70000F8B505460F46002428882128B8
:1079B00031D004DC102808D0112861D104E03B2824
:1079C0003CD056285CD14AE05BE0072000F072FB17
:1079D000044600BF26463EB100BF2BA24FF4F5710E
:1079E0003046FEF717FC00BF00BFA8882A49088070
:1079F00008460188294803F0E2FC044600BF2646F9
:107A00003EB100BF20A240F2ED113046FEF702FC6D
:107A100000BF00BF35E000200090A88869468FDFD6
:107A2000044600BF26463EB100BF17A24FF4FD71C9
:107A30003046FEF7EFFB00BF00BF22E0A88813210D
:107A400076DF044600BF26463EB100BF0EA240F2DC
:107A500002213046FEF7DEFB00BF00BF11E0A88820
:107A6000132176DF044600BF26463EB100BF06A2C2
:107A700040F20A213046FEF7CDFB00BF00BF00E018
:107A800000BF00BFF8BD00002E2E5C2E2E5C2E2EF7
:107A90005C6D61696E2E630018240020582500205B
:107AA00070B505460E462888102802D011282CD122
:107AB00015E01748006860B900F0EEFF044600BF0B
:107AC00034B11448006818B1204612490968884743
:107AD00000BF0F480068401C0D49086016E00C48C4
:107AE0000068401E0A4908600846006860B9FFF750
:107AF00059F8044600BF34B10648006818B1204662
:107B000004490968884700BF00E000BF00BF70BD9E
:107B10003C2400203824002070B504460D462088FF
:107B2000102806D0112808D012280ED0502810D1C5
:107B300007E0204604F0B4FA0CE0204604F064FBB1
:107B400008E0204604F0ACFC04E0204604F090FA83
:107B500000E000BF00BF70BD2DE9F04104460F46B4
:107B6000A6882088102806D0112819D019283FD0BF
:107B70001A284AD118E006F033FB304606F0A4F983
:107B800030B900BF22A2F0210420FEF743FB06E03B
:107B9000E07B022803D131462C4803F031FB34E06E
:107BA000304606F041FB30E0207A0509042D01DB68
:107BB000012000E000200246314624480C3001F04C
:107BC000B2FC032D01DB012000E00020024631461B
:107BD0001E48083001F0A7FC022D01DB012000E067
:107BE0000020024631461948001D01F09CFC0CE0C3
:107BF000207A48B9607AC0F3C0052A463146134856
:107C00000C3001F090FC00BF00BF00BFBDE8F08168
:107C10002E2E5C2E2E5C2E2E5C2E2E5C2E2E5C2E9E
:107C20002E5C636F6D706F6E656E74735C626C65F5
:107C30005C636F6D6D6F6E5C626C655F636F6E6EC3
:107C40005F73746174652E6300000000802A002059
:107C500070B504460D4600BF0748007800B970BDF6
:107C600000BF204602F012FA204607F08FF82046A7
:107C700001F012FF00BFF2E77C24002070B504463B
:107C8000204607F018FD054605F0010070BD000014
:107C900038B503F043FF044600BF25463DB100BFA1
:107CA00015A240F22D212846FEF7B4FA00BF00BF0E
:107CB000002000906946012003F040FE044600BF0A
:107CC00025463DB100BF0CA240F233212846FEF705
:107CD000A1FA00BF00BF684603F082FE044600BF61
:107CE00025463DB100BF04A240F237212846FEF7E9
:107CF00091FA00BF00BF38BD2E2E5C2E2E5C2E2EBA
:107D00005C6D61696E2E630001460148405C7047FE
:107D1000A8FF020010B50146094B585C00BF4FF0A8
:107D2000A044234600BFD3F81045C44004F001042A
:107D30000CB1012000E00020024682F0010010BDDD
:107D4000A8FF02007CB500240DE00848055D03266D
:107D5000002000903346024601460190284603F079
:107D6000B1FC00BF641C042CEFD37CBDA8FF020053
:107D700010B5044604F0010008B100F04BF804F01F
:107D8000020008B1FFF7DEFF10BD000010B502468B
:107D90000949885C00BF4FF0A0442146D1F8043562
:107DA000012484409C43C1F80845012484401C40C0
:107DB000C1F80C4500BF10BDA4FF020010B5044679
:107DC0000249085D012103F0F6FC10BDA4FF02008A
:107DD00010B504460249085D002103F0ECFC10BD1B
:107DE000A4FF020010B50146094B585C00BF4FF0DC
:107DF000A044234600BFD3F80445C44004F0010466
:107E00000CB1012000E00020024682F0010010BD0C
:107E1000A4FF02007CB500240CE00948055D0020A9
:107E200000900346012211460190284603F04AFCC7
:107E300000BF641C042CF0D300F004F87CBD0000EB
:107E4000A4FF020010B5002403E02046FFF7B6FFB0
:107E5000641C042CF9D310BD10B5002403E02046A7
:107E6000FFF7B6FF641C042CF9D310BD02464FF097
:107E7000FF30002106E0054B5B5C934201D10846D0
:107E800002E0491C0429F6D300BF7047A8FF020096
:107E900070B505460C4600260648056014B120461C
:107EA00007F002FA0448006810B9FEF77BFE0646A8
:107EB000304670BD382400203C24002010B500203E
:107EC00000F022FB044600BF1CB1062C01D0204666
:107ED00010BD00BF012000F017FB044600BF1CB11D
:107EE000062C01D02046F3E700BF0020F0E7000099
:107EF0002DE9F04106460F464FF0000800243046B9
:107F0000FFF7B4FF0446042C3ED20FB3012F02D07A
:107F1000022F38D130E004EB4400214911F80080F1
:107F200004EB44000844407850B11E4A4FF400412D
:107F30001D480068FFF72EF805460DB91948067070
:107F400004EB4400164908448078184908551AE0A3
:107F500015480068FFF74AF81448005D04EB440137
:107F60000F4A11448978884205D104EB4400114638
:107F7000084490F8028006E004EB440008490844F5
:107F800090F8018000BF00BFB8F1000F06D008488C
:107F9000006818B14046064909688847BDE8F08185
:107FA000F829002030240020B4FF020031240020F2
:107FB0002C24002010B50446042C03D22046FFF7E1
:107FC000A9FE10BD0020FCE770B50546042D06D0C3
:107FD000072D18D00A2D2FD106F0A0FE2DE0132179
:107FE0001748008876DF0446082C0BD000BF2646D1
:107FF0003EB100BF13A240F287213046FEF70AF9D6
:1080000000BF00BF19E00E4800884FF6FF7188429C
:1080100011D11048FFF7A5FA0446082C0BD000BF79
:1080200026463EB100BF07A240F291213046FEF73E
:10803000F1F800BF00BF00E000BF00BF70BD00004E
:10804000182400202E2E5C2E2E5C2E2E5C6D616975
:108050006E2E63006425002030B503460020042BFB
:1080600023D2012A07D1012903D103F10E04E4B27E
:1080700000E00024224679B1012902D0022911D161
:1080800004E003EB43040A4D2A550DE003EB4304DF
:10809000074D2C44627007E003EB4304044D2C446D
:1080A000A27001E0072000BF00E0072030BD000003
:1080B000F829002070B5044600250548007800F036
:1080C000010018B1204600F05BF80546284670BD57
:1080D000242400202DE9F04105460F4600241F48C6
:1080E00005601F48076005F0020000B3002606E0A7
:1080F000012211463046FFF7AFFF0446761C042EDE
:1081000001D2002CF4D034B940F266620421154843
:10811000FEF72CFE044614B9FEF712FE04462CB9F5
:10812000114A00211148FEF7E9FE044600BF05F0A0
:10813000010080B10120FFF71BFE2CB90C4A002181
:108140000C48FEF7DBFE04462CB90B4A01210B4814
:10815000FEF7D4FE04462046BDE8F081242400202A
:108160002C240020B8FF020045850200B4FF020065
:10817000ADA60200ACFF02001F6D0200B0FF0200BE
:108180002DE9F047044600260025DA48007820B1A2
:108190000020D849087002F075FA182C7ED2DFE86A
:1081A00004F00C16174A7EB2F6F4F3F2F1F0EFEE9B
:1081B000EDECEBEAE9E8E7E6E5E402F063FACE4845
:1081C0000068FEF713FF0646CC4804708DE100BF3F
:1081D0000020FFF707FE58B10020FFF7EFFD022C4B
:1081E00002D14FF4E16001E04FF47A60054609E006
:1081F0000020FFF7EDFD022C01D1C82001E04FF473
:10820000C8700546BD4804704FF40040A5FB00103F
:108210004FF4FA73CF1840F100015A00002338469A
:10822000FEF7EEF8814600224946B3480068FEF7A3
:10823000B1FE064659E10020FFF7D4FD58B10020F9
:10824000FFF7BCFD032C02D14FF4487001E04FF45E
:108250007A60054609E00020FFF7BAFD032C01D142
:10826000C82001E04FF4C8700546A44804704FF4DC
:108270000040A5FB00104FF4FA728F1840F1000186
:10828000520000233846FEF7BBF8814600224946DB
:1082900099480068FEF77EFE064626E124E10020AC
:1082A000FFF7A0FD58B10020FFF788FD042C02D194
:1082B0004FF47A6001E04FF47A6005460AE000204E
:1082C000FFF786FD042C02D14FF4C87001E04FF493
:1082D000C8700546894804704FF40040A5FB0010A3
:1082E0004FF4FA73CF1840F100015A0000233846CA
:1082F000FEF786F88146002249467F480068FEF76F
:1083000049FE0646F1E00020FFF76CFD50B1002069
:10831000FFF754FD052C01D1C82001E04FF47A602D
:10832000054609E00020FFF753FD052C01D1C820C8
:1083300001E04FF4C8700546704804704FF40040E7
:10834000A5FB00204FF4FA73D71840F100015A0042
:1083500000233846FEF754F8814600224946664815
:108360000068FEF717FE0646BFE0B8E0B6E0AAE0F8
:10837000A1E098E092E05FE05DE05BE059E057E06B
:1083800051E042E033E024E015E00EE0FFE700209A
:10839000FFF7FCFC59480470002240F6CD415648D6
:1083A0000068FEF7F7FD06469FE00020FFF710FD8E
:1083B0005248047099E001204E490870FFF7E6FC2E
:1083C000002240F6CD414C480068FEF7E3FD06462A
:1083D0008BE0012047490870FFF7D8FC00224FF4DA
:1083E000804145480068FEF7D5FD06467DE0012046
:1083F00040490870FFF7CAFC002240F6CD413E48D4
:108400000068FEF7C7FD06466FE001203949087095
:10841000FFF7BCFC00224FF4804137480068FEF7AC
:10842000B9FD064661E0FFF717FD344804705CE0D3
:1084300000BF00BF00BF00BF31480068FEF7D6FD97
:108440000646C4F1110515B30EBB012D18D9A8B20B
:10845000C82148434FF4004180FB01104FF4FA72E9
:108460008F1840F10001520000233846FDF7C8FF85
:1084700081460022494622480068FEF78BFD0646E9
:108480000220FFF7A5FC01201E49087005E002202C
:10849000FFF794FC00201B49087026E002F0F2F878
:1084A0001648047021E002F0EDF80020FFF790FC80
:1084B0001248047019E002F0E5F80120FFF788FC8B
:1084C0000E48047011E002F0DDF80020FFF780FC98
:1084D0000120FFF77DFC0948047006E000BFFFF7AC
:1084E000BBFC0648047000E000BF00BF3046BDE89A
:1084F000F087000021240020ACFF0200202400208F
:10850000B0FF02002824002010B5044601212046B7
:1085100007F05BFA10BD00000246002108E0074B9F
:108520001B6803EBC1000378934200D17047491CDC
:10853000034800788142F2DB0020F7E7B8240020EE
:10854000BC24002010B5044620780221FFF7D0FC9F
:1085500010BD0000F8B5054615490320FFF7BAFD28
:10856000044600BF26463EB100BF12A240F2C5211C
:108570003046FDF74FFE00BF00BF69460020FFF701
:1085800087FC044600BF26463EB100BF09A24FF457
:1085900032713046FDF73EFE00BF00BF9DF800007F
:1085A000022801D1012000E000202870F8BD000061
:1085B000C97F02002E2E5C2E2E5C2E2E5C6D616912
:1085C0006E2E63007CB50446204601F0A5FE0546EC
:1085D00000236A46092104F09DFC052805D10122EB
:1085E000024801782046FFF77DF97CBD5824002021
:1085F0007CB504460E460020019042F6A620ADF858
:10860000040001208DF806000748006800906A46C3
:1086100001A92046A0DF05462DB9012203480178B3
:108620002046FFF75FF97CBD1C00030059240020A1
:1086300001468879012809D10879012806D148889E
:1086400042F60212904201D1012070470020FCE75F
:108650004FF0FF31054A42F82010082804DBFF23C1
:10866000A0F1080150325354704700001C2D002027
:108670000146024850F82100704700001C2D0020E0
:108680002DE9F04F03460C464FF0FF390AB10020A8
:1086900000E0082084460AB1082000E00C20804653
:1086A000614624E0154850F82100401CF0B91D46F1
:1086B0000846274616464FFA80FBDFF840A00AF12D
:1086C000300A0AF805B0DFF834A04AF820704EB935
:1086D0004FFA85FBA0F1080ADFF820E00EF1500EFA
:1086E0000EF80AB000BF4FFA81F902E0491C41457B
:1086F000D8D300BF4846BDE8F08F00001C2D0020F5
:1087000001460148405670474C2D00202DE9F041AC
:1087100004460D464FF6FF76304684420AD14FF4A8
:108720008071284602F02DFD86B2B6F5807F10D10B
:1087300026460EE0FF2C0CDC2146284602F00AFDFE
:1087400080F001070FB1204601E04FF6FF700646AA
:1087500000BF3046BDE8F0812DE9F04782461F4852
:108760000068002836D01D480068056805F092FDB5
:1087700007461B4804682146384606F003FEC61C1F
:108780001848007808B905F097FDAE4201D2284696
:1087900000E03046044424F07F44204605F074FD98
:1087A00005F078FD80463946404606F0EBFD00F1C5
:1087B00003093946204606F0E5FD814509D905F053
:1087C00069FD814605F060FD2F2003F0A3FA06F055
:1087D00037FF01E005F08EFDBDE8F087D0240020D2
:1087E000D4240020E224002001468878012805D105
:1087F00091F82000012801D100207047886A0428E0
:1088000002D0486A042801D10020F6E70120F4E7ED
:1088100033B58BB00546002000900C9878B1002449
:108820000BE021460CA802F0DCFC28B1009A501C99
:10883000009001A820F81240641C142CF1D32C22C3
:1088400069462846FDF71CFE0DB030BD014608887C
:10885000062808DB0888B0F5486F06DD08884FF663
:10886000FF72904201D0072070474888062808DB35
:108870004888B0F5486F06DD48884FF6FF72904291
:1088800001D00720F0E708884FF6FF72904208D029
:108890004888904205D008884A88904201DD072028
:1088A000E2E70020E0E72DE9F04107460D461446D7
:1088B00098462088801D404502D90C20BDE8F081F3
:1088C0003846FFF7C3FF064600BF304600B1F5E764
:1088D00000BF0520218868542088401C2080122079
:1088E000218868542088401C2080228851193888AB
:1088F00006F0E7FE218808442080228851197888F4
:1089000006F0DFFE2188084420800020D6E7000022
:1089100010B5044600BF04A240F27D112046FDF7C9
:1089200079FC00BF10BD00002E2E5C2E2E5C2E2E7A
:108930005C6D61696E2E630030B587B01C2168469E
:10894000FDF7B7FD002000904FF4203001904FF468
:108950007020029003208DF80C000020ADF80E006E
:108960008DF810000A4805900A4806906846FEF700
:10897000D7FE044600BF25463DB100BF06A24FF416
:10898000CA712846FDF746FC00BF00BF07B030BDE6
:1089900031C00200118902002E2E5C2E2E5C2E2E7C
:1089A0005C6D61696E2E6300F8B505460C46607A11
:1089B00088B9207A10B91048476801E00E488768E6
:1089C0002A4639466068FEF7E5FA064616B1304693
:1089D00005F028FF0EE0002020720748406948B1EA
:1089E00001208DF80000ADF8025003484169684647
:1089F000884700BFF8BD0000582A0020F0B585B0B8
:108A000004460D4617461E4614220B496846FDF7DC
:108A100037FDADF802408DF80850ADF80A708DF8BA
:108A20000C600022054801782046FEF75BFF68468F
:108A300000F00CFB05B0F0BDE40003008C24002026
:108A400010B586B00446208804F052F800BB208898
:108A5000FEF7B4FE30B92088012241F2060100F091
:108A600039F915E0208800220A490978FEF73AFF13
:108A700002208DF804002088ADF8060000208DF853
:108A80000C0000218DF80D1001A800F0DFFA00BFE6
:108A900006B010BD8C24002010B50122002108462C
:108AA000FFF7DAFA044600BF1CB1072C01D02046BC
:108AB00010BD00BF072202210120FFF7CDFA0446B6
:108AC00000BF1CB1072C01D02046F1E700BF0422F3
:108AD00002210020FFF7C0FA044600BF1CB1072C9A
:108AE00001D02046E4E700BF0020E1E77FB506465D
:108AF0000C46002002900390ADF80840ADF80A4003
:108B0000009001906A4602A9304690DF054605B103
:108B100000BF284604B070BD2DE9F04105460F4660
:108B20000F4C0121204602F0ADFB064600BF00BFFE
:108B300000BF00BFBFF35F8F00BF00BF00BF0EB913
:108B4000012000E0002040B1284601F065FF08B197
:108B5000BDE8F081024802F071FE00BFF8E70000B6
:108B60005024002070B504F00FFF044600BF2546D6
:108B70003DB100BF04A24FF41C712846FDF74AFB2B
:108B800000BF00BF70BD00002E2E5C2E2E5C2E2E6E
:108B90005C6D61696E2E630070B506460D4616B1B8
:108BA0004FF4064070BD287920B1012809D0022871
:108BB00015D111E002202871284605F0E3F904469A
:108BC00010E0284600F072FC044648F20960844236
:108BD00001D141F61D5405E041F61D5402E048F272
:108BE0000E6400BF00BF2046DCE700002DE9F04125
:108BF0008046002414E01248006800EBC405287881
:108C000003F068F907466878012800D100E00020E9
:108C1000784080F001062878314600F053F9641C52
:108C2000084800788442E6DB0748D0E900100023BA
:108C300059405840014301D006F056FCBDE8F08190
:108C4000B8240020BC240020C824002070B50446AD
:108C500020793D2802D141F23D0001E04FF48850D7
:108C6000054620880022294601F0A4FD70BD0000C1
:108C7000014614480078144A127890421DD01148D9
:108C80000078401C0F4A107010460078022801D16D
:108C9000002010700D480B4A127850F8220008602E
:108CA0000B4A086812681044094A106010460068B0
:108CB00020F07F401060012070470020086000BF56
:108CC000FAE70000E0240020E1240020D82400205E
:108CD000D424002070B506460C4615462B46224685
:108CE00000213046FFF78AFE70BD00002DE9F843F1
:108CF00005460E461746984669461048006802F039
:108D0000E2F9044614B90420BDE8F8831C2120468A
:108D1000FDF7CFFB012020712560C4F808800848CA
:108D20000068B6FBF0F0E0606761694603480068E0
:108D300002F0F3F905F050F80020E5E79C0103008C
:108D40009001030010B50446D4E90321501828DF30
:108D500010BD0278072A38D2DFE802F03704071284
:108D6000222B340000220A7030E001220A700389AD
:108D70008B818388CB81C2688A6000230B7425E0D5
:108D800002220A7003898B818388CB81C2688A6042
:108D9000827D062A01D1012300E000230B7415E037
:108DA00003220A70C3888B810389CB81C2688A60E1
:108DB0000CE004220A70C3888B810023CB8100223F
:108DC0008A6003E005220A7000E000BF00BF704720
:108DD00070B50546002409E0064850F8240020B18B
:108DE000044850F8241028468847641C042CF3D308
:108DF00070BD0000E02E002030B587B004460D465F
:108E00002068806808B907B030BD182101A8FDF7B7
:108E100050FB0295A0680690207910B1012815D169
:108E200009E001208DF8040020690390E0680490B7
:108E3000606905900BE002208DF804000749E068A6
:108E40000968484303906069059000E000BF00BFD7
:108E50002068816801A8884700BFD4E7900103001B
:108E600070B586B006460C4615461CB3112C21D0B1
:108E7000082C1FD00D2C19D13246032101A801F076
:108E80001BFF2DB1287800F0010008B1012000E09F
:108E900002208DF80C0000218DF8101041F2011114
:108EA000ADF80E1001A800F0E5F803E021463046C9
:108EB00005F026FD06B070BD10B50446204600F052
:108EC000D9F810BDF8B505460C46284606F000FA5C
:108ED00005286AD2DFE800F003212A393F00DCB11F
:108EE0000121284606F004FA002000906846FEF7AB
:108EF00095F82A460126002730463946FDF7B1FA93
:108F00002B4AD2E9003218431143294A03C29DF883
:108F10000000FEF789F800BF47E00CB1022000E036
:108F200000200146284606F0E3F93EE044B1032163
:108F3000284606F0DDF90121284606F083FC03E00F
:108F40000121284606F0D4F92FE01CB90421284657
:108F500006F0CEF929E024B10321284606F0C8F92D
:108F600022E00021284606F0C3F90021284606F039
:108F700069FC002000906846FEF750F82A4601265A
:108F8000002730463946FDF76CFA0A46C143D04304
:108F9000074B0CCB11401840054AC2E900109DF860
:108FA0000000FEF741F800BF00BF00BFF8BD0000A1
:108FB000C824002070B50446608801F0ADF9A08097
:108FC000002505E0044850F82510204688476D1C10
:108FD000002DF7D070BD00004824002070B5044675
:108FE000A08801F0C9F86080002505E0044850F829
:108FF0002510204688476D1C002DF7D070BD00005D
:109000005C24002070B50546002405E0044850F8B3
:10901000241028468847641C022CF7D370BD00003A
:109020005C00030070B50546002405E0054850F8D3
:10903000241028468847641C034800788442F5DBE6
:1090400070BD0000D02C00208A24002070B504469A
:10905000608801F061F9A080002505E0044850F81F
:109060002510204688476D1C002DF7D070BD0000EC
:10907000A400030070B50546002405E0044850F83C
:10908000241028468847641C002CF7D070BD0000CF
:109090001C010300F0B5034600241FE0124E3068A7
:1090A00006689E4203D90668F61A06601AE006684A
:1090B0009B1B06683444002606600B4E35680A4F39
:1090C000C6693E60C66846B10E1926F07F46466006
:1090D000C66886601668C661156000BF02480068F1
:1090E0000028DBD100BFF0BDD024002010B586B031
:1090F0000446142101A8FDF7DCF9A08900F0F0F97D
:10910000ADF80800207806285ED2DFE800F05D03A5
:1091100004052E4A00BF00BFA08900F0E6F918B987
:10912000E08905F050F8F8B1E08905F049F88DF8CC
:109130000C002078032801D1012100E000218DF8E6
:109140000D10A1680491606830B908208DF8040002
:1091500001218DF8141004E009208DF804006168E5
:10916000059101A803F05EFE2FE0A08900F0BDF993
:10917000B0B1E089A0B9606838B90A208DF8040060
:10918000BDF8080004F03CF804E00B208DF8040062
:109190006068039001201149087001A803F042FEA5
:1091A00013E0606818B913208DF8040004E014205F
:1091B0008DF80400606803904FF6FF70ADF808006A
:1091C00001A803F02FFE00E000BF00BF03480078B5
:1091D00008B103F06DFF06B010BD00006924002047
:1091E00038B505461048007810B948F2016038BD1E
:1091F0004FF6FF70854202D148F20360F7E76846F8
:1092000004F0CAFC044614B948F20760EFE70520F1
:10921000207001202071E580684604F0CDFC04F048
:10922000CFFD0020E3E70000E424002038B50E481D
:10923000007810B948F2016038BD684604F0ACFC13
:10924000044614B948F20760F6E706202070684625
:1092500004F0B2FC0548007810B1012003490873FE
:1092600004F0AEFD0020E7E7E4240020B42F002046
:1092700070B586B0142101A8FDF71BF92E480078BF
:1092800028B101A8FFF7A4FD002006B070BD2A4850
:10929000001D01F0C4FF08B10020F6E700F0D4F98A
:1092A00006460EB13046F0E704F0B2FC03F068FB6E
:1092B000054625B1022D03D0062D0ED103E000BFD7
:1092C00048F20A60E1E701201B490870002048606D
:1092D00001A8FFF77DFD0020D7E700BF00BF68466B
:1092E00004F05AFC044614B948F20760CDE70120A7
:1092F00020700C2D16D2DFE805F0150615071511A4
:109300001512150A0E0B00BF002020710BE000BFE4
:109310000320207107E00220207104E000BF01203B
:10932000207100E000BF00BF684604F045FC04F077
:1093300047FD0020A9E70000E424002038B50446DA
:1093400014B948F2046038BD6946204604F038FE7E
:1093500008B3BDF8000000EB8000114901EB80006C
:10936000C068A8B1A07A98B1BDF8000000EB8000F9
:1093700001EB8000C068401EBDF8001001EB8101C8
:10938000074A02EB8101C8600020A072002504E0BA
:1093900048F2056501E048F209652846D3E7000078
:1093A0008C2F00207FB514461D462B46224601A96E
:1093B000684604F09DFD04B070BD37B50C461546F7
:1093C0002B4622466946002004F092FD3EBD37B58B
:1093D0000C4615462B4622460021684604F088FDBF
:1093E0003EBD024602B111B948F2046070471068F0
:1093F00008600020FAE70000F8B504460D4604B105
:1094000015B948F20460F8BD6946204604F0D8FD5D
:10941000A0B16668BDF8001001EB8101094A02EBBA
:10942000810101F10C00012101F000FF2E60606854
:109430000C3068600120A0720020E4E748F2096067
:10944000E1E700008C2F002070B504460D4614B9EA
:1094500048F2046070BD032300222946204606F02E
:109460003DFCF7E770B504460D460223002229466D
:10947000204606F033FC70BD70B50546094800680B
:10948000042802D148F20B6409E00748054909683D
:1094900040F821500121034801F0C8FE0024204675
:1094A00070BD0000F0240020E02E00203EB50446F0
:1094B0000A4B6A460021A01D04F01AFD054635B985
:1094C000064A9188019804F0F5FD054603E003483B
:1094D00000210160416028463EBD000000250020BB
:1094E0000146A1F5404080B270470146B1F5404FBA
:1094F00005DB4FF6FE70814201DC01207047002041
:10950000FCE710B504462078182802D1FEF7C6F90A
:10951000207010BD10B504462078182802D1FEF73F
:10952000BDF9207010BD70B505460E46144624B135
:109530003146284601F064FE03E03146284601F03A
:10954000FAFD70BD30B504461088C01C984201D9A0
:109550000C2030BD0220158848551088401C108012
:109560000120158848551088401C108015884C55DE
:109570001088401C10800020EBE770B504460D46B3
:1095800040F21442115B0122D4F81004FDF702FFEF
:10959000064606B1357004F13C0204F5826104F11F
:1095A000540072DF70BD00002DE9F04106460C4604
:1095B00015460027112C01D1012700E0002765B1D5
:1095C0003A460A4801783046FEF78CF900220848EE
:1095D00001783046FEF786F905E03A4604480178FE
:1095E0003046FEF77FF9BDE8F0810000A724002097
:1095F000A424002010B54FF4405400F009F80349AA
:10960000086108460069001BC86010BD30250020B5
:1096100010B540F6F8700068401C18B94FF01020E3
:10962000406902E040F6F870006803464FF0805051
:1096300001694269581C08B1184601E002FB01F0BB
:109640000446A4F5805010BD10B5FFF7D3FF0022EB
:109650000249034801F068FF10BD0000A0010300AB
:1096600030250020F7B50D4617460DB90020FEBD88
:109670000026009868B1002409E02146684601F000
:10968000B0FD18B1A0B23946A847761C641C142C52
:10969000F3D33046EBE710B50446606804F0E6FA11
:1096A00010BD00003EB500BF9DF8000020F00F0087
:1096B000401C00909DF8000020F0F0001030009059
:1096C00000BF0A2217A168467CDF044600BF25467A
:1096D0003DB100BF16A240F21F112846FCF79AFDCB
:1096E00000BF00BF0020019002905020ADF80400A0
:1096F000A020ADF806000020ADF808004FF4C870B7
:10970000ADF80A0001A87ADF044600BF25463DB146
:1097100000BF07A240F229112846FCF77BFD00BFDD
:1097200000BF3EBD536D6172745F506C7567000081
:109730002E2E5C2E2E5C2E2E5C6D61696E2E6300CB
:1097400070B50021084801F0C9FD044600BF254658
:109750003DB100BF05A24FF499712846FCF75AFDB0
:1097600000BF00BF70BD0000442500202E2E5C2EDF
:109770002E5C2E2E5C6D61696E2E630070B5054601
:1097800015B14FF4064070BD1848007B18B1002099
:109790001649087301E000F0DFF814480078082843
:1097A0001DD2DFE800F01C04080C101C141800F097
:1097B0003FF8044616E000F0BDF8044612E000F061
:1097C00099F804460EE000F047F804460AE000F07D
:1097D00035F9044606E000F043F9044602E048F299
:1097E0000E6400BF00BF2046CDE70000B42F00206C
:1097F0000D480089401C0C490881002048800873EE
:1098000000BF0DE000EB8001084A12F8211009B9F1
:10981000012200E0002204490A310A54411C88B2A6
:109820000228EFDB70470000B42F00208C2F0020AF
:1098300010B5084800F036F840B900200549891EE7
:1098400008704880486041F61D5010BD00F072F865
:10985000FBE70000B62F002070B50F48458805EBE8
:1098600085000E4901EB8000C06878B904200A49E0
:10987000087005EB8500094A02EB800000230122F5
:109880004168074801F01AFE044602E000F090F833
:109890000446204670BD0000B42F00208C2F00200D
:1098A0003025002010B501460022002018E00F4BA3
:1098B0001B5C9BB100240D4B1C5400EB80030C4C33
:1098C00004EB8303DB684BB900EB800304EB8303F9
:1098D0001B7C012B02D10880012203E0431C98B2BB
:1098E0000228E4DB00BF104610BD0000BE2F0020A0
:1098F0008C2F0020F8B50C4844680C4800680B49D0
:10990000898800EB81056088C01C86B20320064967
:1099100008700020B30000900846294642680448B9
:1099200001F082FEF8BD0000B42F0020F8240020D2
:109930003025002010B507494888091D04F07EFB3A
:1099400018B1FFF7D7FF044602E0FFF785FF044692
:10995000204610BDB42F002010B514480078082808
:1099600020D2DFE800F0041F1F0A1016171BFFF7B4
:109970003FFF01200D49087015E000F07DF802203E
:109980000A4908700FE000F029F80620074908701E
:1099900009E000BF07200549087004E001200349E1
:1099A000087000E000BF00BF10BD0000B42F002011
:1099B00010B505200649087002200649888008462F
:1099C000002301220168044801F078FD10BD000069
:1099D000B42F0020F8240020302500201449086806
:1099E0001449498801EB8101134A02EB810149685E
:1099F0000F4A11600F49498801EB81010E4A02EBC1
:109A0000810148600A4989880A4A528802EB820229
:109A1000094B03EB820211810221054A918000214A
:109A2000044A528802EB820203EB820211747047EF
:109A3000F8240020B42F00208C2F002010B5062021
:109A400005490870498801EB8101044A02EB810154
:109A5000486802F073FF10BDB42F00208C2F002047
:109A600010B50720034908700020486002F076FF17
:109A700010BD0000B42F0020054A50684288D21C57
:109A800091B2044A92880A44024B9A8070470000BF
:109A9000B42F0020F82400202DE9F04186B00446C0
:109AA000A588208850282ED004DC352836D03628CA
:109AB00008D163E0522802D05428F9D103E02846A7
:109AC00000F05EFF7BE01422444901A8FCF7D8FCBB
:109AD000ADF80650284600F01FFCADF80800BDF8B0
:109AE000080000F071F900223D4801782846FDF792
:109AF000F9FE00223B4801782846FDF7F3FE01A855
:109B0000FFF758FA5BE0A01DFEF792FD28B1012196
:109B1000284600F075FF05F0EDFD50E00027A58810
:109B200004F10A06304801782846FDF7C5FE00B961
:109B300045E000222C4801782846FDF7D3FEE08856
:109B4000B0F5857F14D0E08890B9708801280FD1D6
:109B5000B18800222846A1DF8046B8F1000F06D167
:109B600001270122214801782846FDF7BBFE00BFEE
:109B70001FB90021284605F0DFFB20E00027A5885B
:109B800004F10A06194801782846FDF795FE00B948
:109B900015E00022154801782846FDF7A3FEE0886D
:109BA00040B9B088012805D1B07908B1012000E0A2
:109BB000002007463946284605F0BEFB00BF00BF1F
:109BC00000BF00220A490B480078FDF707FE00BFDE
:109BD00004F002FF06B0BDE8F08100003000030091
:109BE0005724002056240020592400205A24002005
:109BF000C57002005524002010B50446207858B9DD
:109C0000608800F0BDFE608804F0D6FE6088FEF734
:109C1000D9FC05F06FFD00E000BF00BF10BD0000E3
:109C200010B500F07BFCFDF739FE25490870FDF703
:109C300035FE24490870FDF731FE23490870FDF711
:109C40002DFE22490870FDF729FE21490870FDF715
:109C500025FE20490870FDF721FE1F4908701848AD
:109C60000078182817D017480078182813D01648FD
:109C7000007818280FD01548007818280BD0144801
:109C80000078182807D013480078182803D0084611
:109C90000078182801D1032010BD00BF00200F4913
:109CA000086000BF00BF00BF00BFBFF35F8F00BFF1
:109CB00000BF00BF00BF0120094908700020EBE78A
:109CC000542400205524002056240020572400202E
:109CD00058240020592400205A2400205024002019
:109CE0004C2400207CB504462078082840D1607AB6
:109CF00000283DD1207A012814D0072802D0082856
:109D000034D12BE0A08800F037FA05464FF6FF70FB
:109D1000854206D00121284600F072FE2846FEF753
:109D200051FC24E0A0886A46012102F0AFFF0646FC
:109D30009EB90198007880B1A08800F01DFA054610
:109D40004FF6FF70854207D001220B480178284664
:109D5000FDF7C8FD04F040FE00BF08E007480068BA
:109D6000012802D1054801F069FD00E000BF00BFF5
:109D700005F0C0FC7CBD00005624002050240020CB
:109D80002DE9F04104468846E0B2FEF7C5FB0546E2
:109D9000287802F09FF807466878012800D100E093
:109DA0000020784080F001064EB10648D0E900104E
:109DB000002359405840014301D105F095FBBDE80F
:109DC000F0810000C82400201CB50446044903C9E2
:109DD000CDE9000100226946204603F0E8F81CBDE9
:109DE0005400030010B500F09FFB012001490870EA
:109DF000002010BD602400202DE9FC478146484624
:109E000000F08AFA0546002600274FF003084FF0BD
:109E1000010A4FF6FF7085420CD06A460821284699
:109E200002F034FF04462CB90198861D8788D0F8CB
:109E3000008000BF00BF43463A4631464846B1DF86
:109E40000446042C01D1112415E0082C01D1002472
:109E500011E00B2C0FD14FF0000A08F0020010B1F6
:109E60004FF0010807E006B927B1002600274FF0A0
:109E7000030800E003240B2CDDD0BAF1000F00D161
:109E80000B242046BDE8FC872DE9FC478046404670
:109E900000F042FA06464FF6FF70864203D143F2C5
:109EA0000200BDE8FC874FF001094FF0000A00BF37
:109EB0004FF0000A4A46511C1FFA81F96B460821EF
:109EC000304602F017FF04460CBB019D03202860BA
:109ED0002A1DA91D40462B68B2DF044634B932461C
:109EE0000821304602F07CFF04460FE00C2C02D122
:109EF0004FF0010A02E0052C00D100240821304671
:109F000002F05EFF074607B1032400BF02E0072C02
:109F100000D10C24BAF1000FCAD100BF2046C0E71F
:109F200010B50446044800884FF6FF71884201D0FE
:109F300004F05EFD10BD000062240020FEB5044662
:109F400002A80190204600F0E7F906466A46012182
:109F5000304602F09BFE05460DB10020FEBD019883
:109F60000078FBE770B505464FF6FF760E48B3DF85
:109F700004460CB1032070BD00BF4FF6FF720A48C3
:109F800001882846AFDF044643F20300844204D12F
:109F900005480088401C0449088043F203008442BD
:109FA000EBD02046E7E700006424002070B50446AB
:109FB0000D46204600F01DF8A84201D9022070BDD0
:109FC000A0884FF6FF71884204D0208810B1A068A5
:109FD000401C08B90120F2E70020F0E702461346D2
:109FE0008B4204D21868401C08B101207047002041
:109FF000FCE701464A8801F10C0000EB8200704743
:10A0000010B501F047FC10BD3EB504460D46207862
:10A010000221B1EB500F01D000203EBDB4F8010089
:10A02000ADF80800E0788DF80A00A188ADF80010BE
:10A03000A0798DF8020001AA69462846FCF744FE83
:10A04000032201A902A8FCF73FFA08B90120E4E7BE
:10A050000020E2E770B504460D46142C03DA2046D2
:10A06000FDF756FC10B943F2020070BD04EB84000A
:10A07000054901EB4000D0F802102960C188A98091
:10A08000007AA8710020F0E7F02A002030B591B0E6
:10A0900005462888102801D011B030BD2C22291D7A
:10A0A00006A8FCF7EDF94FF6FF749DF81C0003219C
:10A0B000B1EB500F35D002F025FF9DF81C00400891
:10A0C00020B1012803D0022828D114E000BF09E004
:10A0D000049800F1110107A8FCF7CAFC10B1BDF803
:10A0E000144006E003AA05A9072002F0D5FE0028C7
:10A0F000EED100BF13E008E00498411C07A8FFF769
:10A1000083FF10B1BDF8144006E003AA05A907209B
:10A1100002F0C2FE0028EFD100BF00E000BF00BF88
:10A1200000BFBDF8180000EB8000124921F8104074
:10A13000BDF8180000EB800001EB40000799C0F863
:10A140000210BDF82010C1809DF8221001724FF658
:10A15000FF7084420CD0BDF81800ADF80600ADF8D1
:10A16000084000208DF8040001A8FEF74BFF00BF57
:10A1700000BF91E7F02A002070B505464FF6FF704A
:10A18000854200D170BD00240EE004EB8400094933
:10A1900031F81000A84205D12046FDF7B9FB08B1FF
:10A1A0002046EFE7601C84B2142CEEDB4FF6FF7004
:10A1B000E8E70000F02A00203EB505460C4602F014
:10A1C000A1FE0BE0BDF80800A04207D02846019987
:10A1D00000F00EF810B1BDF808003EBD6A4602A9B5
:10A1E000072002F059FE0028ECD14FF6FF70F4E78B
:10A1F0002DE9F04704460D4604F1110605F111075B
:10A200001022691C601CFCF75FF948B9601C00F063
:10A21000FEF928B1681C00F0FAF908B1012000E04D
:10A220000020824639463046FCF722FC80463078D2
:10A230000221B1EB500F10D030780321B1EB500F59
:10A240000BD038780221B1EB500F06D038780321BB
:10A25000B1EB500F01D0012000E000208146B8F1A1
:10A26000000F02D0B9F1000F05D1BAF1000F05D0EF
:10A27000B9F1000F02D10120BDE8F0870020FBE713
:10A280000246108808B101207047002105E0901CAB
:10A29000405C08B10120F7E7491C0829F7D30020EA
:10A2A000F2E770B505460C462846FFF7E9FF08B906
:10A2B000002070BD28882188884201D00020F8E75E
:10A2C0000822A11CA81CFCF7FFF808B90120F0E740
:10A2D0000020EEE7142804DA00EB8002014B23F89B
:10A2E00012107047F02A002070B506463046FFF77E
:10A2F00043FF0446304602F0D4FC054645B9142C11
:10A3000006DA4FF6FF7004EB8401024A22F81100CE
:10A31000284670BDF02A002010B50446142C03DA3C
:10A320002046FDF7F5FA10B94FF6FF7010BD04EBAB
:10A330008400024931F81000F8E70000F02A0020FC
:10A340003EB5044602F0DEFD10E0019800F1460142
:10A350002046FFF7A6FF30B9019800F12A012046F8
:10A36000FFF79FFF10B1BDF808003EBD6A4602A985
:10A37000072002F091FD0028E7D14FF6FF70F4E7C7
:10A3800070B504460D4609486060094800F047FF73
:10A3900050B901F01DFC064908741C238C220549A4
:10A3A0000548006800F07BFE002070BD90010300AE
:10A3B0006C300020D02F00209C0103002DE9F041DB
:10A3C00006460C4648F20E6736B100204349486005
:10A3D0004FF40640BDE8F081207930B101280AD061
:10A3E000022835D003286DD140E00120207102F011
:10A3F000B5FA074667E04FF00008002519E005EBC5
:10A400008500374911F82000022810D1002005EB03
:10A410008501334A02F821004FF0010805EB850160
:10A4200002EB8101486802F089FA074603E0681CE4
:10A4300085B2022DE3DB00BFB8F1000F07D1012088
:10A44000264908700020486041F61D50C2E73AE0F6
:10A450000020207102202349888008460023012221
:10A460000168214801F02AF807462CE000202071FD
:10A470001C49086802F062FA07461C4845881948DA
:10A48000D0F8008005EB8500154901EB800040689D
:10A490001449086005EB8500114901EB8000C0F804
:10A4A00004801048808805EB85010D4A02EB81018C
:10A4B000088102200B498880002005EB850102F805
:10A4C000210000E000BF00BF2FB100200349486019
:10A4D00048F20D607EE700207CE70000E4240020C5
:10A4E0008C2F0020F824002030250020B42F0020DD
:10A4F000024600210CE001EB8100074B33F82000FD
:10A50000904204D101EB810003EB80007047491CAD
:10A510000029F0D00020F9E7442A0020002001495A
:10A52000087070474C2400200020034908704FF643
:10A53000FF700249088070476024002062240020D8
:10A5400010B5002407E004EB4401044A02EB81004B
:10A5500005F09DFB641C022CF5D310BDD82B002008
:10A5600010B5044640212046FBF7A3FF10BD0000B4
:10A570004FF6FF70024908800020024908607047CA
:10A58000882400208024002001460348007A08B176
:10A59000012070470020FCE76C3000202DE9F041DD
:10A5A0000446A08800EB020CB4F80480904501DD5D
:10A5B000104600E0A088A8EB0005E088C618B4F8B3
:10A5C0000680984501DD184600E0E088A8EB00070A
:10A5D0004888B4F80080404504DB4888B4F802801D
:10A5E000404502DD0020BDE8F0818888A84202D302
:10A5F0008888604501D90020F5E7C888B84202D3B1
:10A60000C888B04201D90020EDE70120EBE70246FF
:10A61000002104E0505C08B101207047491C10295A
:10A62000F8D30020F9E7014601F0030008B9012042
:10A6300070470020FCE77CB504466A4607212046A7
:10A6400002F024FB05463DB9019890F8440000F063
:10A65000010008B101207CBD0020FCE710B50446D4
:10A6600022460121002001F06FF8002105E054F896
:10A67000210008B1012010BD491C0029F7D000209D
:10A68000F9E7000010B50848007850B1002405E053
:10A69000022C02D02046FDF791FB641C042CF7D35A
:10A6A00001E0FDF7CFFB10BD2824002010B50446C3
:10A6B0000448007800F0010018B103480078FDF765
:10A6C0005FFD10BD242400202024002017210180DC
:10A6D00041800021017141711B218171C17170475D
:10A6E0002DE9FE4F81460F46924698460FB100264F
:10A6F00012E0684600F0D0FA6A460021484602F0AF
:10A700004DFA009E2248007828B99DF8090010B93A
:10A710000520BDE8FE8F00BF52463146484604F092
:10A72000A9FC0446002221464846FEF73DFF0D2CB9
:10A730001CD005DCCCB1082C1AD00B2C1BD118E096
:10A74000112C04D0A4F540500238A0B90FE03A46CD
:10A75000104801784846FDF7C5F852460E48017882
:10A760004846FDF7BFF8002507E000BF00BF00BF67
:10A7700000BF254601E0032500BF00BFB8F1000F70
:10A7800004D0324621464846FEF76AFB2846C0E719
:10A790009C240020A6240020A524002070B5054696
:10A7A0000E46314628467EDF0446042C00D1112493
:10A7B000204670BD70B504460D46164600BF0B48D6
:10A7C00001782046FDF778F870B1204602F090F944
:10A7D00028B132462946204602F094F904E0324678
:10A7E00029462046FEF776FA70BD00008C24002032
:10A7F0002DE9F041044688460A4801782046FDF7D5
:10A800005BF80646084801782046FDF755F80746EC
:10A810000123324639462046FFF762FF0546BDE870
:10A82000F0810000A5240020A624002070B5054674
:10A830000C46002624B121462846FFF7AFFF064606
:10A84000304670BD2DE9F041064600274748D0F854
:10A85000008078E016B13446E66947E04448007865
:10A8600000EB40014248001D00EBC105001F0078CD
:10A87000401C3F490870084600788978884202D118
:10A8800000203B4908706C68287801281AD00228FB
:10A8900002D0032817D107E0686804F0E1FD00B199
:10A8A0000127002020744EE007E0304908680021AD
:10A8B00001742E4AC169116000BF2C48006800284D
:10A8C000F3D140E000E03EE000BF207C00B13AE080
:10A8D000A8686060E868A0602869E0606869A061B5
:10A8E0002448007808B10020606000BF22496068F9
:10A8F0000968401A20F07F402049884208D21E494A
:10A900006068096804F03EFDA168084420600FE01B
:10A9100019486168006804F035FD0546A068A84242
:10A9200003D9A068401B206001E00020206000BF28
:10A9300000206060A060012020740020E0612046BB
:10A9400004F05AFD00BF002E84D109480078084960
:10A9500049788842F8D11FB904480068404502D0C0
:10A960000120BDE8F0810020FBE70000D02400209A
:10A97000C82D0020E3240020D4240020FFFF7F0006
:10A9800070B586B005460026142101A8FBF791FD9D
:10A99000ADF806504FF6FF70854201D106B070BD8C
:10A9A0002846FFF729FA044644B10B2C0FD0112C8E
:10A9B0000BD0A4F54050023888B90FE00E208DF876
:10A9C000040001A8FEF7F6FA0EE001260CE00F20C5
:10A9D0008DF8040001A8FEF7EDFA05E004E0214639
:10A9E000284603F051FF00BF00BF324603480178FC
:10A9F0002846FCF777FF00BFD0E700005524002071
:10AA000070B505460C462246024801782846FCF7F8
:10AA100069FF70BD54240020F0B585B004460026BF
:10AA200000272046FFF730FA054645B1112D09D021
:10AA3000862D09D0A5F54050023880B901E00127E4
:10AA400012E011E001260FE014220B496846FBF7E3
:10AA500017FDADF802406846FEF7ACFA04E029465F
:10AA6000204603F011FF00BF00BF31462046FFF72C
:10AA7000C7FF384605B0F0BDECFF020070B50024FA
:10AA800000BF25463DB100BF04A240F2D3212846B5
:10AA9000FBF7C0FB00BF00BF70BD00002E2E5C2E78
:10AAA0002E5C2E2E5C6D61696E2E630008B5FFF77B
:10AAB000E5FF04F0CBFD6846FDF74CFD03F052F8CE
:10AAC000FDF7E6F8FEF7EEFDFEF73AFE04F078F843
:10AAD000FCF792F8FDF730FF02F012FCFCF7F1FAF8
:10AAE0009DF80000FCF7CCF8FBF74AFD00BFFFF72C
:10AAF00087FAFCE72DE9F04105460E4614469846D4
:10AB0000A888871C2088801C3844404502D90C2026
:10AB1000BDE8F081FE2F01D90C20F9E7781C2188CF
:10AB200070542088401C2080FF2021887054208889
:10AB3000401C208022889119288804F0C2FD2188B9
:10AB400008442080A88800280DDDA86808B90720DF
:10AB5000DEE7AA8823889819A968FBF791FC20886A
:10AB6000A988084420800020D2E770B504460D462D
:10AB70002946204600F0EEFA80F0010600BF00BF33
:10AB800000BFBFF35F8F00BF00BF00BF304670BD86
:10AB900070B504460D4600BF00BF00BFBFF35F8F16
:10ABA00000BF00BF00BF2946204600F01AFB70BD61
:10ABB00070B504460D4600BF00BF00BFBFF35F8FF6
:10ABC00000BF00BF00BF2946204600F0B4FA70BDA8
:10ABD0002DE9F84F05460F46144698462878012877
:10ABE00004D1687810B90720BDE8F88F2088801C50
:10ABF000404508D82878012807D12088801C69782A
:10AC00000844404501D90C20EEE72088A8EB00005D
:10AC1000801E86B200962188891CC81969467DDF8E
:10AC2000814600BF484600B1DEE700BF2878022811
:10AC300004D06878BDF80010884206DBBDF800003B
:10AC4000B04202DC4FF0090A0BE04FF0080A287806
:10AC5000012805D16878B04202DC6878009000E0F5
:10AC60000096BDF80000FE2801D90C20BCE7BDF815
:10AC70000000401C218878542088401C20802088B7
:10AC800007F800A02088401C20802088BDF8001014
:10AC9000084420800020A7E70EB500210091019113
:10ACA00002910449096800919DE80E0080E80E00B9
:10ACB0000EBD00009824002070B586B006460D46F3
:10ACC0001446142101A8FBF7F4FB8DF80450ADF8ED
:10ACD00006402046FFF720FBADF80800142201A92A
:10ACE0003046FBF7CDFB06B070BD70B505460E468D
:10ACF0004FF6FF70854201D1002000E0681C84B24D
:10AD000008E02146304600F06CFA08B1204670BDDC
:10AD1000601C84B2FF2CF4DD4FF6FF70F7E70000F3
:10AD200014480068401C38B91348017812480830AC
:10AD30000078C0F3031205E00E4801684FF0805020
:10AD4000D0F83421062912D1032A06D0042A06D0CD
:10AD5000052A06D0062A08D105E001207047012007
:10AD6000FCE70120FAE70120F8E70120F6E70020E0
:10AD7000F4E7000030010010E00F00F01448006814
:10AD8000401C38B913480178124808300078C0F3E5
:10AD9000031205E00E4801684FF08050D0F83421CE
:10ADA000062912D1032A06D0042A06D0052A06D085
:10ADB000062A08D105E0012070470120FCE70120A8
:10ADC000FAE70120F8E70120F6E70020F4E70000A9
:10ADD00030010010E00F00F014480068401C38B942
:10ADE00013480178124808300078C0F3031205E0D8
:10ADF0000E4801684FF08050D0F83421062912D156
:10AE0000032A06D0042A06D0052A06D0062A08D12D
:10AE100005E0012070470120FCE70120FAE701204E
:10AE2000F8E70120F6E70020F4E700003001001009
:10AE3000E00F00F00E4802780D4808300078C0F3AB
:10AE40000311062A12D1032906D0042906D00529A8
:10AE500006D0062908D105E0012070470020FCE754
:10AE60000020FAE70020F8E70020F6E70020F4E7EA
:10AE7000E00F00F00E4802684FF08050D0F8341117
:10AE8000062A12D1032906D0042906D0052906D0A6
:10AE9000062908D105E0002070470020FCE70020CB
:10AEA000FAE70120F8E70120F6E70020F4E70000C8
:10AEB0003001001014480068401C38B9134801786C
:10AEC000124808300078C0F3031205E00E4801680C
:10AED0004FF08050D0F83421062912D1032A06D031
:10AEE000042A06D0052A06D0062A08D105E001204A
:10AEF00070470120FCE70120FAE70120F8E7012074
:10AF0000F6E70020F4E7000030010010E00F00F049
:10AF10000E4802780D4808300078C0F30311062A65
:10AF200012D1032906D0042906D0052906D0062906
:10AF300008D105E0012070470020FCE70020FAE777
:10AF40000020F8E70020F6E70020F4E7E00F00F02B
:10AF500014480068401C38B913480178124808307A
:10AF60000078C0F3031205E00E4801684FF08050EE
:10AF7000D0F83421062912D1032A06D0042A06D09B
:10AF8000052A06D0062A08D105E0012070470120D5
:10AF9000FCE70120FAE70120F8E70120F6E70020AE
:10AFA000F4E7000030010010E00F00F00E480278D6
:10AFB0000D4808300078C0F30311062A12D1032986
:10AFC00006D0042906D0052906D0062908D105E0B7
:10AFD000012070470020FCE70020FAE70020F8E796
:10AFE0000020F6E70020F4E7E00F00F00E480278BA
:10AFF0000D4808300078C0F30311062A12D1032946
:10B0000006D0042906D0052906D0062908D105E076
:10B01000012070470020FCE70020FAE70020F8E755
:10B020000020F6E70020F4E7E00F00F01448006885
:10B03000401C38B913480178124808300078C0F332
:10B04000031205E00E4801684FF08050D0F834211B
:10B05000062912D1032A06D0042A06D0052A06D0D2
:10B06000062A08D105E0002070470020FCE70120F7
:10B07000FAE70120F8E70120F6E70020F4E70000F6
:10B0800030010010E00F00F070B504462046FBF7D9
:10B090001AF905460DB1002070BD1120FCE710B56E
:10B0A000044609B90E2010BD92FBF3F003FB1020FB
:10B0B00008B10920F7E7216000206060A060A2814C
:10B0C000E38100BFEFE770B504460D4629462046F0
:10B0D000FBF7AEF818B12A882168881870BD0020E7
:10B0E000FCE770B505460C4620886188884204D18B
:10B0F0002846FBF7DFF8012070BD0020FCE770B5A3
:10B1000004460D4629462046FBF7B7F818B16A8871
:10B110002168881870BD0020FCE770B505460C4614
:10B1200020886188884204D12846FBF79DF80120D9
:10B1300070BD0020FCE770B505460C4604F01F0307
:10B1400001229A40D143620905EB820000F079F8B0
:10B15000064670BD70B505460C4604F01F0301227B
:10B1600002FA03F1620905EB820000F080F804F0B6
:10B170001F0201219140084008B1012070BD00204C
:10B18000FCE72DE9F04106460D46002421E056F883
:10B190002400C04390FAA0F0B0FA80F814E008EB65
:10B1A0004417AF4200D312E039463046FFF7D2FFD2
:10B1B00010B93846BDE8F08156F82400C04390FA33
:10B1C000A0F0B0FA80F800BFB8F1200FE7D300BFBD
:10B1D000641C681E012101EB5010A042D7D82846FC
:10B1E000E8E710B50246480952F8200001F01F04B4
:10B1F0000123A340184008B1012010BD0020FCE746
:10B2000070B505460C4604F01F03012202FA03F153
:10B21000620905EB820000F040F8064670BD10B5EB
:10B2200004460121204600F022F810BDF8B504467E
:10B230000D466A4629462046FBF791F806460098D7
:10B24000F8BDF8B504460D466A4629462046FBF788
:10B250006CF806460098F8BDF8B504460D466A46F7
:10B2600029462046FBF77BF806463046F8BDF8B580
:10B2700004460D466A4629462046FBF749F806462D
:10B280003046F8BDF8B504460D466A4629462046C4
:10B29000FBF732F806463046F8BDF8B504460D46D1
:10B2A0006A4629462046FBF733F806460098F8BD63
:10B2B000F8B504460D466A4629462046FBF75CF879
:10B2C00006460098F8BD30B502460B46D40802F099
:10B2D0000702012090401D5D284030BD70B5044636
:10B2E0000E4600BF0CB90E2070BD00BF26611720AE
:10B2F000208060801B202071002505E0A11D01EB4E
:10B30000C500FFF7E3F96D1C002DF7D00020EBE737
:10B310002DE9F04106460F463D46B488012C01DB7D
:10B32000BDE8F0813088242820D006DC102809D020
:10B3300011280CD0232823D11DE03A280CD0552801
:10B340001ED10EE03146284600F0E9FE19E03146F4
:10B35000284600F08BFF14E03146284600F0C6FF77
:10B360000FE03146284600F08BFF0AE031462846C0
:10B3700000F008FF05E03146284600F02DFF00E010
:10B3800000BF00BFA81D00EBC4000079A8B1A81D34
:10B3900030F834102046A5DF8046B8F1000F0AD1FE
:10B3A0000021A81D00EBC40001710121A81D00EBC4
:10B3B000C400417100E000BF00BF00BFB0E702461B
:10B3C00000BF0AB90E20704700BF00BF1078DE280A
:10B3D00001D00820F7E700BF51800020F3E70246C4
:10B3E00000BF0AB90E20704700BF00BF09B90E2088
:10B3F000F9E700BF1078DE2801D10820F3E70868DC
:10B400005060DE2010704FF6FF7050800020EAE799
:10B4100070B504460E4600BF06B970BD00BF00BF40
:10B4200004B9FAE700BF354600BF2878DE2800D00F
:10B43000F3E700BFA0886988884202D1284604F05B
:10B44000C7F92088012806D0022809D0112811D078
:10B45000512817D109E0211D284601F011F812E00A
:10B46000211D284601F00BF80DE0211D284600F0B3
:10B47000B1FF08E0A0886988884202D14FF6FF70CA
:10B48000688000E000BF00BF00BFC6E701464FF084
:10B490008040405808B1012070470020FCE708B503
:10B4A00000224FF080410A500958009100BF08BDAA
:10B4B0000149086070470000080300402DE9F04191
:10B4C00004460E4615461F4600BF14B90E20BDE8BF
:10B4D000F08100BF00BF206808B90820F7E700BF6F
:10B4E00000BF0DB90920F2E700BF00BF314620467A
:10B4F000FBF7DFFA08B91020E9E700BF00BF60687A
:10B50000006800FB05F231462046FBF7E8FA08B96F
:10B510001020DCE700BF20683B462A463146D0F8C1
:10B5200010C02046E047D2E770B504460D461646E7
:10B5300000BF0CB90E2070BD00BF00BF0DB90E20BA
:10B54000F9E700BF25602068314602682046904731
:10B55000F1E7000002460120044B58741846007AB7
:10B5600008B9012070470020FCE700006C30002083
:10B5700070B504460D46012C01D0032C0BD10020E0
:10B5800005494874012C01D1012000E00020024946
:10B59000087402F0CDFB70BD6C30002070B504461D
:10B5A0000E46022C02D0032C00D070BD1C48007A3D
:10B5B00020B1012803D0022826D101E0F5E723E0DD
:10B5C0000025022C02D0032C0CD105E015480068A0
:10B5D00000F0D0FE054606E01248006800F0B8FE14
:10B5E000054600E000BF00BF6DB100200C490872A5
:10B5F000022C00D100E00D2001460A480068FDF74A
:10B60000FBFB02F0EDFA00BF00BF0548407C10B91B
:10B6100002F08EFB01E000F0E1FA00BFC5E7000098
:10B620006C300020142500202DE9F84304460F4615
:10B6300016461D46DDF8208000BF14B90E20BDE877
:10B64000F88300BF00BF0EB90E20F8E700BF00BFAF
:10B65000206808B90820F2E700BF00BF0DB9092033
:10B66000EDE700BF00BF60684068B5FBF0F100FB8C
:10B67000115008B10920E2E700BF00BF3846FBF7D0
:10B6800010FA08B91020DAE700BF00BF3046FBF718
:10B6900008FA08B91020D2E700BF00BF2A46394691
:10B6A0002046FBF71CFA08B91020C8E700BFCDF808
:10B6B000008020682B4632463946D0F80CC0204620
:10B6C000E047BCE7F0B5DDE9054500BF4FF0A04716
:10B6D0003E4641EA420747EA830747EA042747EA2A
:10B6E000054C06F5E06747F820C0F0BDF0B5DDE990
:10B6F000054500BF4FF0A0473E4641EA420747EAF2
:10B70000830747EA042747EA054C06F5E06747F850
:10B7100020C0F0BD10B50A4600BF4FF0A043194647
:10B7200001F5E06353F8203023F4403401F5E06381
:10B7300043F8204053F8203043EA024401F5E06327
:10B7400043F8204010BD000038B503460A4C246879
:10B75000009418460BE05DF82040D4F820451460B2
:10B760005DF820501468C5F82045121D401C5C1877
:10B770008442F0D838BD00002401030001464A0984
:10B7800000230AB95B1E00BF00BF01F01F010120AA
:10B790008840184008B1012070470020FCE70146AE
:10B7A00000BF4FF0A040024600BFD2F81005C840CD
:10B7B00000F00100704710B561B900BF00BF4FF045
:10B7C000A0421346012404FA00F2C3F80C2500BF7E
:10B7D00000BF0CE000BF00BF4FF0A04213460124A1
:10B7E00004FA00F2C3F8082500BF00BF00BF10BD77
:10B7F00001460148084470470060004038B50446DF
:10B800002046FFF7F5FF002101602046FFF7F0FF1B
:10B810000068009000BF38BD10B504462046FFF711
:10B82000E7FF0068012800D110BD0020FCE7000000
:10B8300001490860704700000463004000BF00BF7A
:10B8400000BFBFF35F8F00BF00BF00BF00210160DA
:10B850007047000010B500200A49087000BF0A496F
:10B86000086000BF00BF00BF00BFBFF35F8F00BF15
:10B8700000BF00BF00BF0549054800F012FA0020D4
:10B8800010BD00002425002020250020D801030041
:10B890008030002038B500BF002000906846FBF7DC
:10B8A000BDFB00BFF1EE100A044624F09F00E1EE5C
:10B8B000100A00BF00BF00BF00BF00BFBFF35F8F13
:10B8C00000BF00BF00BF262000F01F0201219140F1
:10B8D000094A430942F8231000BF9DF80000FBF716
:10B8E000A3FB00BF00F074F910B141DF044602E091
:10B8F00020BF40BF20BF38BD80E200E010B5044645
:10B9000000BF04A240F23F112046FAF783FC00BFBB
:10B9100010BD00002E2E5C2E2E5C2E2E5C6D6169FB
:10B920006E2E6300014609B90E2070470248006878
:10B9300008600020F9E7000068020300FEB5054634
:10B940000C462046FFF7EEFF06460EB13046FEBD20
:10B9500000200090019002908DF8005001208DF899
:10B9600002000621ADF8041069462020226869DF34
:10B970000646002000900190029001208DF8010001
:10B9800000208DF802008DF80300694640202268EF
:10B9900069DF0646002000900190029001208DF89A
:10B9A00000006946226869DF064600200090019089
:10B9B00002904FF4B06000906946A120226869DFD0
:10B9C0000646002000900190029001208DF80000B2
:10B9D0006946A020226869DF06460020B7E700001C
:10B9E00070B504462668204660DF05462068B042F0
:10B9F00000D800BF15B9012001490870284670BD64
:10BA0000282500202DE9F04192B0804618480078A2
:10BA100010B912B0BDE8F0811CE03420049004A9F4
:10BA200005A861DF044604B115E005AD114901A880
:10BA300000F037F909E000BF03980646376828464A
:10BA40007168B84701A800F04DF900BF03980028BD
:10BA5000F1D100BFE1E700BF052C07D000BF06A26F
:10BA600040F23B112046FAF7D5FB00BF00BFD0E7FC
:10BA7000282500205C0203002E2E5C2E2E5C2E2E2C
:10BA80005C2E2E5C2E2E5C2E2E5C636F6D706F6EA6
:10BA9000656E74735C736F66746465766963655C08
:10BAA000636F6D6D6F6E5C6E72665F7364685F620C
:10BAB0006C652E630000000038B51648007808B9A0
:10BAC000082038BD01201449087002F0CFFC11286D
:10BAD00001D10020F5E7022002F0E6FC00200090F2
